{
  "_format": "hh-sol-artifact-1",
  "contractName": "RandomNumberConsumer",
  "sourceName": "contracts/RandomNumber.Consumer.sol",
  "abi": [
    {
      "inputs": [],
      "stateMutability": "nonpayable",
      "type": "constructor"
    },
    {
      "inputs": [
        {
          "internalType": "bytes32",
          "name": "c__0x468ad65f",
          "type": "bytes32"
        }
      ],
      "name": "c_0x468ad65f",
      "outputs": [],
      "stateMutability": "pure",
      "type": "function"
    },
    {
      "inputs": [],
      "name": "getRandomNumber",
      "outputs": [
        {
          "internalType": "bytes32",
          "name": "requestId",
          "type": "bytes32"
        }
      ],
      "stateMutability": "nonpayable",
      "type": "function"
    },
    {
      "inputs": [],
      "name": "randomResult",
      "outputs": [
        {
          "internalType": "uint256",
          "name": "",
          "type": "uint256"
        }
      ],
      "stateMutability": "view",
      "type": "function"
    },
    {
      "inputs": [
        {
          "internalType": "bytes32",
          "name": "requestId",
          "type": "bytes32"
        },
        {
          "internalType": "uint256",
          "name": "randomness",
          "type": "uint256"
        }
      ],
      "name": "rawFulfillRandomness",
      "outputs": [],
      "stateMutability": "nonpayable",
      "type": "function"
    }
  ],
  "bytecode": "0x60c060405234801561001057600080fd5b5073dd3782915140c8f3b190b5d67eac6dc5760c46e973a36085f69e2889c224210f603d836748e7dc00888173ffffffffffffffffffffffffffffffffffffffff1660a08173ffffffffffffffffffffffffffffffffffffffff1660601b815250508073ffffffffffffffffffffffffffffffffffffffff1660808173ffffffffffffffffffffffffffffffffffffffff1660601b8152505050506100dd7fcb13a486dbdf79f8008603998b313cfd76a01057698b3f8c154c1156fc446cda60001b6101e360201b60201c565b61010f7f17824bb0b90c231d443e915e63e496944c89ed0d112008e5708ad8c0444899ee60001b6101e360201b60201c565b6101417f0e5c33775d0dd08023303a9a1919bcb59ffa5b5be7ba7b9405ac2e64aa95717860001b6101e360201b60201c565b7f6c3699283bda56ad74f6b855546325b68d482e983852a7a82979cc4807b641f460001b60018190555061019d7f79fd01cf85637975ec88736fa92947bd878e862dba913f4157f61ca55786d72460001b6101e360201b60201c565b6101cf7f3a342a75d810624f37dcd53944a0aacfef513906e6eaa46005852f778b8a7c3b60001b6101e360201b60201c565b67016345785d8a00006002819055506101e6565b50565b60805160601c60a05160601c610baf61021e6000396000818160cd015261046f01526000818161022101526104330152610baf6000f3fe608060405234801561001057600080fd5b506004361061004c5760003560e01c806342619f661461005157806394985ddd1461006f5780639cb3f4211461008b578063dbdff2c1146100a7575b600080fd5b6100596100c5565b6040516100669190610940565b60405180910390f35b610089600480360381019061008491906106ab565b6100cb565b005b6100a560048036038101906100a0919061067e565b610167565b005b6100af61016a565b6040516100bc9190610877565b60405180910390f35b60035481565b7f000000000000000000000000000000000000000000000000000000000000000073ffffffffffffffffffffffffffffffffffffffff163373ffffffffffffffffffffffffffffffffffffffff1614610159576040517f08c379a000000000000000000000000000000000000000000000000000000000815260040161015090610920565b60405180910390fd5b61016382826103a0565b5050565b50565b60006101987f9821a2be37a663fb6603eef5ed662336ec7c77ee8e0a2ce79ff3a6c5c17819bb60001b610167565b6101c47fa0ce509e8915e37266adba0e6705ca5384082645bb5ebcad0793f27be6b894e360001b610167565b6101f07fbda5035a7849d2f95c87bc5032ad051208cb5116e02cd5b6bf7cd6bcec47350f60001b610167565b61021c7fe250e1ef18b2931518b93e49a1ea4ebe01f0427574feccb6cb3d4d212ac350b360001b610167565b6002547f000000000000000000000000000000000000000000000000000000000000000073ffffffffffffffffffffffffffffffffffffffff166370a08231306040518263ffffffff1660e01b8152600401610278919061081e565b60206040518083038186803b15801561029057600080fd5b505afa1580156102a4573d6000803e3d6000fd5b505050506040513d601f19601f820116820180604052508101906102c891906106eb565b1015610309576040517f08c379a000000000000000000000000000000000000000000000000000000000815260040161030090610900565b60405180910390fd5b6103357f8a18f97432955bd2c0d4da121e9e7e386f529e80deb7ea2154e975f45a5a1c3f60001b610167565b6103617f6ea50c9b8101ad73aeb7c99b5afc673adae8a4a2e0bc863272a365fd0cc360e660001b610167565b61038d7f7ef12c6656ec8afbc6b2a4baf096d91f4344eba576a43e08201011dc104587d360001b610167565b61039b60015460025461042f565b905090565b6103cc7ff8456e5b52083a40f08c3393be7fdbdbe4c782651bd10a2d91846bd4f3d1695260001b610167565b6103f87f6f56650c2f7c20df3f92f08547df97db32dd3ddf088494a501cbe21dad0f307160001b610167565b6104247fd964b1744be2bc8274a7f4d7490e74f2e67e44f42de48876903e1dca470f7b6960001b610167565b806003819055505050565b60007f000000000000000000000000000000000000000000000000000000000000000073ffffffffffffffffffffffffffffffffffffffff16634000aea07f0000000000000000000000000000000000000000000000000000000000000000848660006040516020016104a3929190610892565b6040516020818303038152906040526040518463ffffffff1660e01b81526004016104d093929190610839565b602060405180830381600087803b1580156104ea57600080fd5b505af11580156104fe573d6000803e3d6000fd5b505050506040513d601f19601f820116820180604052508101906105229190610651565b506000610544846000306000808981526020019081526020016000205461058e565b90506001600080868152602001908152602001600020546105659190610988565b6000808681526020019081526020016000208190555061058584826105ca565b91505092915050565b6000848484846040516020016105a794939291906108bb565b6040516020818303038152906040528051906020012060001c9050949350505050565b600082826040516020016105df9291906107f2565b60405160208183030381529060405280519060200120905092915050565b60008151905061060c81610b34565b92915050565b60008135905061062181610b4b565b92915050565b60008135905061063681610b62565b92915050565b60008151905061064b81610b62565b92915050565b60006020828403121561066757610666610aa6565b5b6000610675848285016105fd565b91505092915050565b60006020828403121561069457610693610aa6565b5b60006106a284828501610612565b91505092915050565b600080604083850312156106c2576106c1610aa6565b5b60006106d085828601610612565b92505060206106e185828601610627565b9150509250929050565b60006020828403121561070157610700610aa6565b5b600061070f8482850161063c565b91505092915050565b610721816109de565b82525050565b610730816109fc565b82525050565b610747610742826109fc565b610a63565b82525050565b60006107588261095b565b6107628185610966565b9350610772818560208601610a30565b61077b81610aab565b840191505092915050565b6000610793602b83610977565b915061079e82610abc565b604082019050919050565b60006107b6601f83610977565b91506107c182610b0b565b602082019050919050565b6107d581610a26565b82525050565b6107ec6107e782610a26565b610a6d565b82525050565b60006107fe8285610736565b60208201915061080e82846107db565b6020820191508190509392505050565b60006020820190506108336000830184610718565b92915050565b600060608201905061084e6000830186610718565b61085b60208301856107cc565b818103604083015261086d818461074d565b9050949350505050565b600060208201905061088c6000830184610727565b92915050565b60006040820190506108a76000830185610727565b6108b460208301846107cc565b9392505050565b60006080820190506108d06000830187610727565b6108dd60208301866107cc565b6108ea6040830185610718565b6108f760608301846107cc565b95945050505050565b6000602082019050818103600083015261091981610786565b9050919050565b60006020820190508181036000830152610939816107a9565b9050919050565b600060208201905061095560008301846107cc565b92915050565b600081519050919050565b600082825260208201905092915050565b600082825260208201905092915050565b600061099382610a26565b915061099e83610a26565b9250827fffffffffffffffffffffffffffffffffffffffffffffffffffffffffffffffff038211156109d3576109d2610a77565b5b828201905092915050565b60006109e982610a06565b9050919050565b60008115159050919050565b6000819050919050565b600073ffffffffffffffffffffffffffffffffffffffff82169050919050565b6000819050919050565b60005b83811015610a4e578082015181840152602081019050610a33565b83811115610a5d576000848401525b50505050565b6000819050919050565b6000819050919050565b7f4e487b7100000000000000000000000000000000000000000000000000000000600052601160045260246000fd5b600080fd5b6000601f19601f8301169050919050565b7f4e6f7420656e6f756768204c494e4b202d2066696c6c20636f6e74726163742060008201527f7769746820666175636574000000000000000000000000000000000000000000602082015250565b7f4f6e6c7920565246436f6f7264696e61746f722063616e2066756c66696c6c00600082015250565b610b3d816109f0565b8114610b4857600080fd5b50565b610b54816109fc565b8114610b5f57600080fd5b50565b610b6b81610a26565b8114610b7657600080fd5b5056fea2646970667358221220a38af7fda011363f101ba6fbd73e519dff74b730eb81bb2fb6253b75e46a2b0c64736f6c63430008070033",
  "linkReferences": {},
  "deployedLinkReferences": {}
}