{
  "contracts/MyFirstContract.sol": {
    "MyFirstContract": {
      "abi": [
        {
          "inputs": [
            {
              "internalType": "address",
              "name": "_priceFeed",
              "type": "address"
            }
          ],
          "stateMutability": "nonpayable",
          "type": "constructor"
        },
        {
          "inputs": [
            {
              "internalType": "bytes32",
              "name": "c__0x85068c8f",
              "type": "bytes32"
            }
          ],
          "name": "c_0x85068c8f",
          "outputs": [],
          "stateMutability": "pure",
          "type": "function"
        },
        {
          "inputs": [],
          "name": "getLatestPrice",
          "outputs": [
            {
              "internalType": "int256",
              "name": "",
              "type": "int256"
            }
          ],
          "stateMutability": "view",
          "type": "function"
        },
        {
          "inputs": [],
          "name": "getNumber",
          "outputs": [
            {
              "internalType": "uint256",
              "name": "",
              "type": "uint256"
            }
          ],
          "stateMutability": "view",
          "type": "function"
        },
        {
          "inputs": [
            {
              "internalType": "uint256",
              "name": "_num",
              "type": "uint256"
            }
          ],
          "name": "setNumber",
          "outputs": [],
          "stateMutability": "nonpayable",
          "type": "function"
        }
      ],
      "evm": {
        "bytecode": {
          "linkReferences": {},
          "object": "608060405234801561001057600080fd5b506040516107de3803806107de83398181016040528101906100329190610192565b6100647f06c650c6089ca45b3dde010f1e49e0a1d69f4fb65b15c2c8317db62afb4a54e660001b61017a60201b60201c565b6100967f9c7a3a41e45180c5dd599879e3b0027367340254bfc0dcebea61f2a8a7cf8f6f60001b61017a60201b60201c565b6100c87f089d1d6a4a204c3172475f48519045a5284df0c549be186d19de17eb9088959d60001b61017a60201b60201c565b80600160006101000a81548173ffffffffffffffffffffffffffffffffffffffff021916908373ffffffffffffffffffffffffffffffffffffffff16021790555061013b7f0643895679c14bda27eda3806febbd4e5dae651ce66ab48e3bd18fc8fad6aaf360001b61017a60201b60201c565b61016d7f3d7e04bb3f506bb0d9e0923093f4f6213f8bb8ee3cfddb682d1b20ee70d5547660001b61017a60201b60201c565b6000808190555050610204565b50565b60008151905061018c816101ed565b92915050565b6000602082840312156101a457600080fd5b60006101b28482850161017d565b91505092915050565b60006101c6826101cd565b9050919050565b600073ffffffffffffffffffffffffffffffffffffffff82169050919050565b6101f6816101bb565b811461020157600080fd5b50565b6105cb806102136000396000f3fe608060405234801561001057600080fd5b506004361061004c5760003560e01c80632fff4b58146100515780633fb5c1cb1461006d5780638e15f47314610089578063f2c9ecd8146100a7575b600080fd5b61006b600480360381019061006691906103e8565b6100c5565b005b61008760048036038101906100829190610411565b6100c8565b005b610091610156565b60405161009e91906104cf565b60405180910390f35b6100af6102f1565b6040516100bc91906104ea565b60405180910390f35b50565b6100f47f8fa5f1bcbb5fc6f520d744e4dea3dd2d5024024d773ca6322ce0b0297fd3f25e60001b6100c5565b6101207fdb22dbc6105d03fab51add9a31060774ffc2ca00eecfa7abd36f35593b92c9a460001b6100c5565b61014c7f173ed2e484a12ff8041b3f10f9ff4ed201d97eb7891a82f812753d675ab55c7f60001b6100c5565b8060008190555050565b60006101847fe69dae7e095d5e7f5957c3ab0ead6944ceb961044b62bcfdd31b0badc33a42be60001b6100c5565b6101b07f5c592503194061880ab0ea46c420078819397def23f57c13000c2578b9fca91560001b6100c5565b6101dc7fb200f84859422488c6b0de491d7445dbb731855c1f593d9070afef5ce9d76b2a60001b6100c5565b6000806000806000600160009054906101000a900473ffffffffffffffffffffffffffffffffffffffff1673ffffffffffffffffffffffffffffffffffffffff1663feaf968c6040518163ffffffff1660e01b815260040160a06040518083038186803b15801561024c57600080fd5b505afa158015610260573d6000803e3d6000fd5b505050506040513d601f19601f82011682018060405250810190610284919061043a565b945094509450945094506102ba7f9e20a60e8080f6c7fcd6749239691b3e19e62ca7687927223efb7b1a00a4c94960001b6100c5565b6102e67f40523171a94a736aedfb373cae82c6e9cea454ead069237a4b509c84c7e760af60001b6100c5565b839550505050505090565b600061031f7f36fcab87967697cf0011607ee8478af36cb2c45f22dce7f9a928e7f541b6051260001b6100c5565b61034b7f715a5afc04ae69f0940a240b384ac06cf94675fdb2cc2ef77341555f8f1cde3e60001b6100c5565b6103777f9260fba3101f36afb055b0dbd152249d5f8f95e969cd4a7d6ece88d3aba19e1760001b6100c5565b600054905090565b60008135905061038e81610539565b92915050565b6000815190506103a381610550565b92915050565b6000813590506103b881610567565b92915050565b6000815190506103cd81610567565b92915050565b6000815190506103e28161057e565b92915050565b6000602082840312156103fa57600080fd5b60006104088482850161037f565b91505092915050565b60006020828403121561042357600080fd5b6000610431848285016103a9565b91505092915050565b600080600080600060a0868803121561045257600080fd5b6000610460888289016103d3565b955050602061047188828901610394565b9450506040610482888289016103be565b9350506060610493888289016103be565b92505060806104a4888289016103d3565b9150509295509295909350565b6104ba8161050f565b82525050565b6104c981610519565b82525050565b60006020820190506104e460008301846104b1565b92915050565b60006020820190506104ff60008301846104c0565b92915050565b6000819050919050565b6000819050919050565b6000819050919050565b600069ffffffffffffffffffff82169050919050565b61054281610505565b811461054d57600080fd5b50565b6105598161050f565b811461056457600080fd5b50565b61057081610519565b811461057b57600080fd5b50565b61058781610523565b811461059257600080fd5b5056fea264697066735822122043f2b2e3db858dd3d0dff6e213318e2d0a160efbe68c7c1ca28e2815ce2353dc64736f6c63430008000033",
          "opcodes": "PUSH1 0x80 PUSH1 0x40 MSTORE CALLVALUE DUP1 ISZERO PUSH2 0x10 JUMPI PUSH1 0x0 DUP1 REVERT JUMPDEST POP PUSH1 0x40 MLOAD PUSH2 0x7DE CODESIZE SUB DUP1 PUSH2 0x7DE DUP4 CODECOPY DUP2 DUP2 ADD PUSH1 0x40 MSTORE DUP2 ADD SWAP1 PUSH2 0x32 SWAP2 SWAP1 PUSH2 0x192 JUMP JUMPDEST PUSH2 0x64 PUSH32 0x6C650C6089CA45B3DDE010F1E49E0A1D69F4FB65B15C2C8317DB62AFB4A54E6 PUSH1 0x0 SHL PUSH2 0x17A PUSH1 0x20 SHL PUSH1 0x20 SHR JUMP JUMPDEST PUSH2 0x96 PUSH32 0x9C7A3A41E45180C5DD599879E3B0027367340254BFC0DCEBEA61F2A8A7CF8F6F PUSH1 0x0 SHL PUSH2 0x17A PUSH1 0x20 SHL PUSH1 0x20 SHR JUMP JUMPDEST PUSH2 0xC8 PUSH32 0x89D1D6A4A204C3172475F48519045A5284DF0C549BE186D19DE17EB9088959D PUSH1 0x0 SHL PUSH2 0x17A PUSH1 0x20 SHL PUSH1 0x20 SHR JUMP JUMPDEST DUP1 PUSH1 0x1 PUSH1 0x0 PUSH2 0x100 EXP DUP2 SLOAD DUP2 PUSH20 0xFFFFFFFFFFFFFFFFFFFFFFFFFFFFFFFFFFFFFFFF MUL NOT AND SWAP1 DUP4 PUSH20 0xFFFFFFFFFFFFFFFFFFFFFFFFFFFFFFFFFFFFFFFF AND MUL OR SWAP1 SSTORE POP PUSH2 0x13B PUSH32 0x643895679C14BDA27EDA3806FEBBD4E5DAE651CE66AB48E3BD18FC8FAD6AAF3 PUSH1 0x0 SHL PUSH2 0x17A PUSH1 0x20 SHL PUSH1 0x20 SHR JUMP JUMPDEST PUSH2 0x16D PUSH32 0x3D7E04BB3F506BB0D9E0923093F4F6213F8BB8EE3CFDDB682D1B20EE70D55476 PUSH1 0x0 SHL PUSH2 0x17A PUSH1 0x20 SHL PUSH1 0x20 SHR JUMP JUMPDEST PUSH1 0x0 DUP1 DUP2 SWAP1 SSTORE POP POP PUSH2 0x204 JUMP JUMPDEST POP JUMP JUMPDEST PUSH1 0x0 DUP2 MLOAD SWAP1 POP PUSH2 0x18C DUP2 PUSH2 0x1ED JUMP JUMPDEST SWAP3 SWAP2 POP POP JUMP JUMPDEST PUSH1 0x0 PUSH1 0x20 DUP3 DUP5 SUB SLT ISZERO PUSH2 0x1A4 JUMPI PUSH1 0x0 DUP1 REVERT JUMPDEST PUSH1 0x0 PUSH2 0x1B2 DUP5 DUP3 DUP6 ADD PUSH2 0x17D JUMP JUMPDEST SWAP2 POP POP SWAP3 SWAP2 POP POP JUMP JUMPDEST PUSH1 0x0 PUSH2 0x1C6 DUP3 PUSH2 0x1CD JUMP JUMPDEST SWAP1 POP SWAP2 SWAP1 POP JUMP JUMPDEST PUSH1 0x0 PUSH20 0xFFFFFFFFFFFFFFFFFFFFFFFFFFFFFFFFFFFFFFFF DUP3 AND SWAP1 POP SWAP2 SWAP1 POP JUMP JUMPDEST PUSH2 0x1F6 DUP2 PUSH2 0x1BB JUMP JUMPDEST DUP2 EQ PUSH2 0x201 JUMPI PUSH1 0x0 DUP1 REVERT JUMPDEST POP JUMP JUMPDEST PUSH2 0x5CB DUP1 PUSH2 0x213 PUSH1 0x0 CODECOPY PUSH1 0x0 RETURN INVALID PUSH1 0x80 PUSH1 0x40 MSTORE CALLVALUE DUP1 ISZERO PUSH2 0x10 JUMPI PUSH1 0x0 DUP1 REVERT JUMPDEST POP PUSH1 0x4 CALLDATASIZE LT PUSH2 0x4C JUMPI PUSH1 0x0 CALLDATALOAD PUSH1 0xE0 SHR DUP1 PUSH4 0x2FFF4B58 EQ PUSH2 0x51 JUMPI DUP1 PUSH4 0x3FB5C1CB EQ PUSH2 0x6D JUMPI DUP1 PUSH4 0x8E15F473 EQ PUSH2 0x89 JUMPI DUP1 PUSH4 0xF2C9ECD8 EQ PUSH2 0xA7 JUMPI JUMPDEST PUSH1 0x0 DUP1 REVERT JUMPDEST PUSH2 0x6B PUSH1 0x4 DUP1 CALLDATASIZE SUB DUP2 ADD SWAP1 PUSH2 0x66 SWAP2 SWAP1 PUSH2 0x3E8 JUMP JUMPDEST PUSH2 0xC5 JUMP JUMPDEST STOP JUMPDEST PUSH2 0x87 PUSH1 0x4 DUP1 CALLDATASIZE SUB DUP2 ADD SWAP1 PUSH2 0x82 SWAP2 SWAP1 PUSH2 0x411 JUMP JUMPDEST PUSH2 0xC8 JUMP JUMPDEST STOP JUMPDEST PUSH2 0x91 PUSH2 0x156 JUMP JUMPDEST PUSH1 0x40 MLOAD PUSH2 0x9E SWAP2 SWAP1 PUSH2 0x4CF JUMP JUMPDEST PUSH1 0x40 MLOAD DUP1 SWAP2 SUB SWAP1 RETURN JUMPDEST PUSH2 0xAF PUSH2 0x2F1 JUMP JUMPDEST PUSH1 0x40 MLOAD PUSH2 0xBC SWAP2 SWAP1 PUSH2 0x4EA JUMP JUMPDEST PUSH1 0x40 MLOAD DUP1 SWAP2 SUB SWAP1 RETURN JUMPDEST POP JUMP JUMPDEST PUSH2 0xF4 PUSH32 0x8FA5F1BCBB5FC6F520D744E4DEA3DD2D5024024D773CA6322CE0B0297FD3F25E PUSH1 0x0 SHL PUSH2 0xC5 JUMP JUMPDEST PUSH2 0x120 PUSH32 0xDB22DBC6105D03FAB51ADD9A31060774FFC2CA00EECFA7ABD36F35593B92C9A4 PUSH1 0x0 SHL PUSH2 0xC5 JUMP JUMPDEST PUSH2 0x14C PUSH32 0x173ED2E484A12FF8041B3F10F9FF4ED201D97EB7891A82F812753D675AB55C7F PUSH1 0x0 SHL PUSH2 0xC5 JUMP JUMPDEST DUP1 PUSH1 0x0 DUP2 SWAP1 SSTORE POP POP JUMP JUMPDEST PUSH1 0x0 PUSH2 0x184 PUSH32 0xE69DAE7E095D5E7F5957C3AB0EAD6944CEB961044B62BCFDD31B0BADC33A42BE PUSH1 0x0 SHL PUSH2 0xC5 JUMP JUMPDEST PUSH2 0x1B0 PUSH32 0x5C592503194061880AB0EA46C420078819397DEF23F57C13000C2578B9FCA915 PUSH1 0x0 SHL PUSH2 0xC5 JUMP JUMPDEST PUSH2 0x1DC PUSH32 0xB200F84859422488C6B0DE491D7445DBB731855C1F593D9070AFEF5CE9D76B2A PUSH1 0x0 SHL PUSH2 0xC5 JUMP JUMPDEST PUSH1 0x0 DUP1 PUSH1 0x0 DUP1 PUSH1 0x0 PUSH1 0x1 PUSH1 0x0 SWAP1 SLOAD SWAP1 PUSH2 0x100 EXP SWAP1 DIV PUSH20 0xFFFFFFFFFFFFFFFFFFFFFFFFFFFFFFFFFFFFFFFF AND PUSH20 0xFFFFFFFFFFFFFFFFFFFFFFFFFFFFFFFFFFFFFFFF AND PUSH4 0xFEAF968C PUSH1 0x40 MLOAD DUP2 PUSH4 0xFFFFFFFF AND PUSH1 0xE0 SHL DUP2 MSTORE PUSH1 0x4 ADD PUSH1 0xA0 PUSH1 0x40 MLOAD DUP1 DUP4 SUB DUP2 DUP7 DUP1 EXTCODESIZE ISZERO DUP1 ISZERO PUSH2 0x24C JUMPI PUSH1 0x0 DUP1 REVERT JUMPDEST POP GAS STATICCALL ISZERO DUP1 ISZERO PUSH2 0x260 JUMPI RETURNDATASIZE PUSH1 0x0 DUP1 RETURNDATACOPY RETURNDATASIZE PUSH1 0x0 REVERT JUMPDEST POP POP POP POP PUSH1 0x40 MLOAD RETURNDATASIZE PUSH1 0x1F NOT PUSH1 0x1F DUP3 ADD AND DUP3 ADD DUP1 PUSH1 0x40 MSTORE POP DUP2 ADD SWAP1 PUSH2 0x284 SWAP2 SWAP1 PUSH2 0x43A JUMP JUMPDEST SWAP5 POP SWAP5 POP SWAP5 POP SWAP5 POP SWAP5 POP PUSH2 0x2BA PUSH32 0x9E20A60E8080F6C7FCD6749239691B3E19E62CA7687927223EFB7B1A00A4C949 PUSH1 0x0 SHL PUSH2 0xC5 JUMP JUMPDEST PUSH2 0x2E6 PUSH32 0x40523171A94A736AEDFB373CAE82C6E9CEA454EAD069237A4B509C84C7E760AF PUSH1 0x0 SHL PUSH2 0xC5 JUMP JUMPDEST DUP4 SWAP6 POP POP POP POP POP POP SWAP1 JUMP JUMPDEST PUSH1 0x0 PUSH2 0x31F PUSH32 0x36FCAB87967697CF0011607EE8478AF36CB2C45F22DCE7F9A928E7F541B60512 PUSH1 0x0 SHL PUSH2 0xC5 JUMP JUMPDEST PUSH2 0x34B PUSH32 0x715A5AFC04AE69F0940A240B384AC06CF94675FDB2CC2EF77341555F8F1CDE3E PUSH1 0x0 SHL PUSH2 0xC5 JUMP JUMPDEST PUSH2 0x377 PUSH32 0x9260FBA3101F36AFB055B0DBD152249D5F8F95E969CD4A7D6ECE88D3ABA19E17 PUSH1 0x0 SHL PUSH2 0xC5 JUMP JUMPDEST PUSH1 0x0 SLOAD SWAP1 POP SWAP1 JUMP JUMPDEST PUSH1 0x0 DUP2 CALLDATALOAD SWAP1 POP PUSH2 0x38E DUP2 PUSH2 0x539 JUMP JUMPDEST SWAP3 SWAP2 POP POP JUMP JUMPDEST PUSH1 0x0 DUP2 MLOAD SWAP1 POP PUSH2 0x3A3 DUP2 PUSH2 0x550 JUMP JUMPDEST SWAP3 SWAP2 POP POP JUMP JUMPDEST PUSH1 0x0 DUP2 CALLDATALOAD SWAP1 POP PUSH2 0x3B8 DUP2 PUSH2 0x567 JUMP JUMPDEST SWAP3 SWAP2 POP POP JUMP JUMPDEST PUSH1 0x0 DUP2 MLOAD SWAP1 POP PUSH2 0x3CD DUP2 PUSH2 0x567 JUMP JUMPDEST SWAP3 SWAP2 POP POP JUMP JUMPDEST PUSH1 0x0 DUP2 MLOAD SWAP1 POP PUSH2 0x3E2 DUP2 PUSH2 0x57E JUMP JUMPDEST SWAP3 SWAP2 POP POP JUMP JUMPDEST PUSH1 0x0 PUSH1 0x20 DUP3 DUP5 SUB SLT ISZERO PUSH2 0x3FA JUMPI PUSH1 0x0 DUP1 REVERT JUMPDEST PUSH1 0x0 PUSH2 0x408 DUP5 DUP3 DUP6 ADD PUSH2 0x37F JUMP JUMPDEST SWAP2 POP POP SWAP3 SWAP2 POP POP JUMP JUMPDEST PUSH1 0x0 PUSH1 0x20 DUP3 DUP5 SUB SLT ISZERO PUSH2 0x423 JUMPI PUSH1 0x0 DUP1 REVERT JUMPDEST PUSH1 0x0 PUSH2 0x431 DUP5 DUP3 DUP6 ADD PUSH2 0x3A9 JUMP JUMPDEST SWAP2 POP POP SWAP3 SWAP2 POP POP JUMP JUMPDEST PUSH1 0x0 DUP1 PUSH1 0x0 DUP1 PUSH1 0x0 PUSH1 0xA0 DUP7 DUP9 SUB SLT ISZERO PUSH2 0x452 JUMPI PUSH1 0x0 DUP1 REVERT JUMPDEST PUSH1 0x0 PUSH2 0x460 DUP9 DUP3 DUP10 ADD PUSH2 0x3D3 JUMP JUMPDEST SWAP6 POP POP PUSH1 0x20 PUSH2 0x471 DUP9 DUP3 DUP10 ADD PUSH2 0x394 JUMP JUMPDEST SWAP5 POP POP PUSH1 0x40 PUSH2 0x482 DUP9 DUP3 DUP10 ADD PUSH2 0x3BE JUMP JUMPDEST SWAP4 POP POP PUSH1 0x60 PUSH2 0x493 DUP9 DUP3 DUP10 ADD PUSH2 0x3BE JUMP JUMPDEST SWAP3 POP POP PUSH1 0x80 PUSH2 0x4A4 DUP9 DUP3 DUP10 ADD PUSH2 0x3D3 JUMP JUMPDEST SWAP2 POP POP SWAP3 SWAP6 POP SWAP3 SWAP6 SWAP1 SWAP4 POP JUMP JUMPDEST PUSH2 0x4BA DUP2 PUSH2 0x50F JUMP JUMPDEST DUP3 MSTORE POP POP JUMP JUMPDEST PUSH2 0x4C9 DUP2 PUSH2 0x519 JUMP JUMPDEST DUP3 MSTORE POP POP JUMP JUMPDEST PUSH1 0x0 PUSH1 0x20 DUP3 ADD SWAP1 POP PUSH2 0x4E4 PUSH1 0x0 DUP4 ADD DUP5 PUSH2 0x4B1 JUMP JUMPDEST SWAP3 SWAP2 POP POP JUMP JUMPDEST PUSH1 0x0 PUSH1 0x20 DUP3 ADD SWAP1 POP PUSH2 0x4FF PUSH1 0x0 DUP4 ADD DUP5 PUSH2 0x4C0 JUMP JUMPDEST SWAP3 SWAP2 POP POP JUMP JUMPDEST PUSH1 0x0 DUP2 SWAP1 POP SWAP2 SWAP1 POP JUMP JUMPDEST PUSH1 0x0 DUP2 SWAP1 POP SWAP2 SWAP1 POP JUMP JUMPDEST PUSH1 0x0 DUP2 SWAP1 POP SWAP2 SWAP1 POP JUMP JUMPDEST PUSH1 0x0 PUSH10 0xFFFFFFFFFFFFFFFFFFFF DUP3 AND SWAP1 POP SWAP2 SWAP1 POP JUMP JUMPDEST PUSH2 0x542 DUP2 PUSH2 0x505 JUMP JUMPDEST DUP2 EQ PUSH2 0x54D JUMPI PUSH1 0x0 DUP1 REVERT JUMPDEST POP JUMP JUMPDEST PUSH2 0x559 DUP2 PUSH2 0x50F JUMP JUMPDEST DUP2 EQ PUSH2 0x564 JUMPI PUSH1 0x0 DUP1 REVERT JUMPDEST POP JUMP JUMPDEST PUSH2 0x570 DUP2 PUSH2 0x519 JUMP JUMPDEST DUP2 EQ PUSH2 0x57B JUMPI PUSH1 0x0 DUP1 REVERT JUMPDEST POP JUMP JUMPDEST PUSH2 0x587 DUP2 PUSH2 0x523 JUMP JUMPDEST DUP2 EQ PUSH2 0x592 JUMPI PUSH1 0x0 DUP1 REVERT JUMPDEST POP JUMP INVALID LOG2 PUSH5 0x6970667358 0x22 SLT KECCAK256 NUMBER CALLCODE 0xB2 0xE3 0xDB DUP6 DUP14 0xD3 0xD0 0xDF 0xF6 0xE2 SGT BALANCE DUP15 0x2D EXP AND 0xE 0xFB 0xE6 DUP13 PUSH29 0x1CA28E2815CE2353DC64736F6C63430008000033000000000000000000 "
        },
        "methodIdentifiers": {
          "c_0x85068c8f(bytes32)": "2fff4b58",
          "getLatestPrice()": "8e15f473",
          "getNumber()": "f2c9ecd8",
          "setNumber(uint256)": "3fb5c1cb"
        }
      }
    }
  }
}