{
  "contracts/RandomNumber.Consumer.sol": {
    "RandomNumberConsumer": {
      "abi": [
        {
          "inputs": [],
          "stateMutability": "nonpayable",
          "type": "constructor"
        },
        {
          "inputs": [
            {
              "internalType": "bytes32",
              "name": "c__0x468ad65f",
              "type": "bytes32"
            }
          ],
          "name": "c_0x468ad65f",
          "outputs": [],
          "stateMutability": "pure",
          "type": "function"
        },
        {
          "inputs": [],
          "name": "getRandomNumber",
          "outputs": [
            {
              "internalType": "bytes32",
              "name": "requestId",
              "type": "bytes32"
            }
          ],
          "stateMutability": "nonpayable",
          "type": "function"
        },
        {
          "inputs": [],
          "name": "randomResult",
          "outputs": [
            {
              "internalType": "uint256",
              "name": "",
              "type": "uint256"
            }
          ],
          "stateMutability": "view",
          "type": "function"
        },
        {
          "inputs": [
            {
              "internalType": "bytes32",
              "name": "requestId",
              "type": "bytes32"
            },
            {
              "internalType": "uint256",
              "name": "randomness",
              "type": "uint256"
            }
          ],
          "name": "rawFulfillRandomness",
          "outputs": [],
          "stateMutability": "nonpayable",
          "type": "function"
        }
      ],
      "evm": {
        "bytecode": {
          "linkReferences": {},
          "object": "60c060405234801561001057600080fd5b5073dd3782915140c8f3b190b5d67eac6dc5760c46e973a36085f69e2889c224210f603d836748e7dc00888173ffffffffffffffffffffffffffffffffffffffff1660a08173ffffffffffffffffffffffffffffffffffffffff1660601b815250508073ffffffffffffffffffffffffffffffffffffffff1660808173ffffffffffffffffffffffffffffffffffffffff1660601b8152505050506100dd7fcb13a486dbdf79f8008603998b313cfd76a01057698b3f8c154c1156fc446cda60001b6101e360201b60201c565b61010f7f17824bb0b90c231d443e915e63e496944c89ed0d112008e5708ad8c0444899ee60001b6101e360201b60201c565b6101417f0e5c33775d0dd08023303a9a1919bcb59ffa5b5be7ba7b9405ac2e64aa95717860001b6101e360201b60201c565b7f6c3699283bda56ad74f6b855546325b68d482e983852a7a82979cc4807b641f460001b60018190555061019d7f79fd01cf85637975ec88736fa92947bd878e862dba913f4157f61ca55786d72460001b6101e360201b60201c565b6101cf7f3a342a75d810624f37dcd53944a0aacfef513906e6eaa46005852f778b8a7c3b60001b6101e360201b60201c565b67016345785d8a00006002819055506101e6565b50565b60805160601c60a05160601c610baf61021e6000396000818160cd015261046f01526000818161022101526104330152610baf6000f3fe608060405234801561001057600080fd5b506004361061004c5760003560e01c806342619f661461005157806394985ddd1461006f5780639cb3f4211461008b578063dbdff2c1146100a7575b600080fd5b6100596100c5565b6040516100669190610940565b60405180910390f35b610089600480360381019061008491906106ab565b6100cb565b005b6100a560048036038101906100a0919061067e565b610167565b005b6100af61016a565b6040516100bc9190610877565b60405180910390f35b60035481565b7f000000000000000000000000000000000000000000000000000000000000000073ffffffffffffffffffffffffffffffffffffffff163373ffffffffffffffffffffffffffffffffffffffff1614610159576040517f08c379a000000000000000000000000000000000000000000000000000000000815260040161015090610920565b60405180910390fd5b61016382826103a0565b5050565b50565b60006101987f9821a2be37a663fb6603eef5ed662336ec7c77ee8e0a2ce79ff3a6c5c17819bb60001b610167565b6101c47fa0ce509e8915e37266adba0e6705ca5384082645bb5ebcad0793f27be6b894e360001b610167565b6101f07fbda5035a7849d2f95c87bc5032ad051208cb5116e02cd5b6bf7cd6bcec47350f60001b610167565b61021c7fe250e1ef18b2931518b93e49a1ea4ebe01f0427574feccb6cb3d4d212ac350b360001b610167565b6002547f000000000000000000000000000000000000000000000000000000000000000073ffffffffffffffffffffffffffffffffffffffff166370a08231306040518263ffffffff1660e01b8152600401610278919061081e565b60206040518083038186803b15801561029057600080fd5b505afa1580156102a4573d6000803e3d6000fd5b505050506040513d601f19601f820116820180604052508101906102c891906106eb565b1015610309576040517f08c379a000000000000000000000000000000000000000000000000000000000815260040161030090610900565b60405180910390fd5b6103357f8a18f97432955bd2c0d4da121e9e7e386f529e80deb7ea2154e975f45a5a1c3f60001b610167565b6103617f6ea50c9b8101ad73aeb7c99b5afc673adae8a4a2e0bc863272a365fd0cc360e660001b610167565b61038d7f7ef12c6656ec8afbc6b2a4baf096d91f4344eba576a43e08201011dc104587d360001b610167565b61039b60015460025461042f565b905090565b6103cc7ff8456e5b52083a40f08c3393be7fdbdbe4c782651bd10a2d91846bd4f3d1695260001b610167565b6103f87f6f56650c2f7c20df3f92f08547df97db32dd3ddf088494a501cbe21dad0f307160001b610167565b6104247fd964b1744be2bc8274a7f4d7490e74f2e67e44f42de48876903e1dca470f7b6960001b610167565b806003819055505050565b60007f000000000000000000000000000000000000000000000000000000000000000073ffffffffffffffffffffffffffffffffffffffff16634000aea07f0000000000000000000000000000000000000000000000000000000000000000848660006040516020016104a3929190610892565b6040516020818303038152906040526040518463ffffffff1660e01b81526004016104d093929190610839565b602060405180830381600087803b1580156104ea57600080fd5b505af11580156104fe573d6000803e3d6000fd5b505050506040513d601f19601f820116820180604052508101906105229190610651565b506000610544846000306000808981526020019081526020016000205461058e565b90506001600080868152602001908152602001600020546105659190610988565b6000808681526020019081526020016000208190555061058584826105ca565b91505092915050565b6000848484846040516020016105a794939291906108bb565b6040516020818303038152906040528051906020012060001c9050949350505050565b600082826040516020016105df9291906107f2565b60405160208183030381529060405280519060200120905092915050565b60008151905061060c81610b34565b92915050565b60008135905061062181610b4b565b92915050565b60008135905061063681610b62565b92915050565b60008151905061064b81610b62565b92915050565b60006020828403121561066757610666610aa6565b5b6000610675848285016105fd565b91505092915050565b60006020828403121561069457610693610aa6565b5b60006106a284828501610612565b91505092915050565b600080604083850312156106c2576106c1610aa6565b5b60006106d085828601610612565b92505060206106e185828601610627565b9150509250929050565b60006020828403121561070157610700610aa6565b5b600061070f8482850161063c565b91505092915050565b610721816109de565b82525050565b610730816109fc565b82525050565b610747610742826109fc565b610a63565b82525050565b60006107588261095b565b6107628185610966565b9350610772818560208601610a30565b61077b81610aab565b840191505092915050565b6000610793602b83610977565b915061079e82610abc565b604082019050919050565b60006107b6601f83610977565b91506107c182610b0b565b602082019050919050565b6107d581610a26565b82525050565b6107ec6107e782610a26565b610a6d565b82525050565b60006107fe8285610736565b60208201915061080e82846107db565b6020820191508190509392505050565b60006020820190506108336000830184610718565b92915050565b600060608201905061084e6000830186610718565b61085b60208301856107cc565b818103604083015261086d818461074d565b9050949350505050565b600060208201905061088c6000830184610727565b92915050565b60006040820190506108a76000830185610727565b6108b460208301846107cc565b9392505050565b60006080820190506108d06000830187610727565b6108dd60208301866107cc565b6108ea6040830185610718565b6108f760608301846107cc565b95945050505050565b6000602082019050818103600083015261091981610786565b9050919050565b60006020820190508181036000830152610939816107a9565b9050919050565b600060208201905061095560008301846107cc565b92915050565b600081519050919050565b600082825260208201905092915050565b600082825260208201905092915050565b600061099382610a26565b915061099e83610a26565b9250827fffffffffffffffffffffffffffffffffffffffffffffffffffffffffffffffff038211156109d3576109d2610a77565b5b828201905092915050565b60006109e982610a06565b9050919050565b60008115159050919050565b6000819050919050565b600073ffffffffffffffffffffffffffffffffffffffff82169050919050565b6000819050919050565b60005b83811015610a4e578082015181840152602081019050610a33565b83811115610a5d576000848401525b50505050565b6000819050919050565b6000819050919050565b7f4e487b7100000000000000000000000000000000000000000000000000000000600052601160045260246000fd5b600080fd5b6000601f19601f8301169050919050565b7f4e6f7420656e6f756768204c494e4b202d2066696c6c20636f6e74726163742060008201527f7769746820666175636574000000000000000000000000000000000000000000602082015250565b7f4f6e6c7920565246436f6f7264696e61746f722063616e2066756c66696c6c00600082015250565b610b3d816109f0565b8114610b4857600080fd5b50565b610b54816109fc565b8114610b5f57600080fd5b50565b610b6b81610a26565b8114610b7657600080fd5b5056fea2646970667358221220a38af7fda011363f101ba6fbd73e519dff74b730eb81bb2fb6253b75e46a2b0c64736f6c63430008070033",
          "opcodes": "PUSH1 0xC0 PUSH1 0x40 MSTORE CALLVALUE DUP1 ISZERO PUSH2 0x10 JUMPI PUSH1 0x0 DUP1 REVERT JUMPDEST POP PUSH20 0xDD3782915140C8F3B190B5D67EAC6DC5760C46E9 PUSH20 0xA36085F69E2889C224210F603D836748E7DC0088 DUP2 PUSH20 0xFFFFFFFFFFFFFFFFFFFFFFFFFFFFFFFFFFFFFFFF AND PUSH1 0xA0 DUP2 PUSH20 0xFFFFFFFFFFFFFFFFFFFFFFFFFFFFFFFFFFFFFFFF AND PUSH1 0x60 SHL DUP2 MSTORE POP POP DUP1 PUSH20 0xFFFFFFFFFFFFFFFFFFFFFFFFFFFFFFFFFFFFFFFF AND PUSH1 0x80 DUP2 PUSH20 0xFFFFFFFFFFFFFFFFFFFFFFFFFFFFFFFFFFFFFFFF AND PUSH1 0x60 SHL DUP2 MSTORE POP POP POP POP PUSH2 0xDD PUSH32 0xCB13A486DBDF79F8008603998B313CFD76A01057698B3F8C154C1156FC446CDA PUSH1 0x0 SHL PUSH2 0x1E3 PUSH1 0x20 SHL PUSH1 0x20 SHR JUMP JUMPDEST PUSH2 0x10F PUSH32 0x17824BB0B90C231D443E915E63E496944C89ED0D112008E5708AD8C0444899EE PUSH1 0x0 SHL PUSH2 0x1E3 PUSH1 0x20 SHL PUSH1 0x20 SHR JUMP JUMPDEST PUSH2 0x141 PUSH32 0xE5C33775D0DD08023303A9A1919BCB59FFA5B5BE7BA7B9405AC2E64AA957178 PUSH1 0x0 SHL PUSH2 0x1E3 PUSH1 0x20 SHL PUSH1 0x20 SHR JUMP JUMPDEST PUSH32 0x6C3699283BDA56AD74F6B855546325B68D482E983852A7A82979CC4807B641F4 PUSH1 0x0 SHL PUSH1 0x1 DUP2 SWAP1 SSTORE POP PUSH2 0x19D PUSH32 0x79FD01CF85637975EC88736FA92947BD878E862DBA913F4157F61CA55786D724 PUSH1 0x0 SHL PUSH2 0x1E3 PUSH1 0x20 SHL PUSH1 0x20 SHR JUMP JUMPDEST PUSH2 0x1CF PUSH32 0x3A342A75D810624F37DCD53944A0AACFEF513906E6EAA46005852F778B8A7C3B PUSH1 0x0 SHL PUSH2 0x1E3 PUSH1 0x20 SHL PUSH1 0x20 SHR JUMP JUMPDEST PUSH8 0x16345785D8A0000 PUSH1 0x2 DUP2 SWAP1 SSTORE POP PUSH2 0x1E6 JUMP JUMPDEST POP JUMP JUMPDEST PUSH1 0x80 MLOAD PUSH1 0x60 SHR PUSH1 0xA0 MLOAD PUSH1 0x60 SHR PUSH2 0xBAF PUSH2 0x21E PUSH1 0x0 CODECOPY PUSH1 0x0 DUP2 DUP2 PUSH1 0xCD ADD MSTORE PUSH2 0x46F ADD MSTORE PUSH1 0x0 DUP2 DUP2 PUSH2 0x221 ADD MSTORE PUSH2 0x433 ADD MSTORE PUSH2 0xBAF PUSH1 0x0 RETURN INVALID PUSH1 0x80 PUSH1 0x40 MSTORE CALLVALUE DUP1 ISZERO PUSH2 0x10 JUMPI PUSH1 0x0 DUP1 REVERT JUMPDEST POP PUSH1 0x4 CALLDATASIZE LT PUSH2 0x4C JUMPI PUSH1 0x0 CALLDATALOAD PUSH1 0xE0 SHR DUP1 PUSH4 0x42619F66 EQ PUSH2 0x51 JUMPI DUP1 PUSH4 0x94985DDD EQ PUSH2 0x6F JUMPI DUP1 PUSH4 0x9CB3F421 EQ PUSH2 0x8B JUMPI DUP1 PUSH4 0xDBDFF2C1 EQ PUSH2 0xA7 JUMPI JUMPDEST PUSH1 0x0 DUP1 REVERT JUMPDEST PUSH2 0x59 PUSH2 0xC5 JUMP JUMPDEST PUSH1 0x40 MLOAD PUSH2 0x66 SWAP2 SWAP1 PUSH2 0x940 JUMP JUMPDEST PUSH1 0x40 MLOAD DUP1 SWAP2 SUB SWAP1 RETURN JUMPDEST PUSH2 0x89 PUSH1 0x4 DUP1 CALLDATASIZE SUB DUP2 ADD SWAP1 PUSH2 0x84 SWAP2 SWAP1 PUSH2 0x6AB JUMP JUMPDEST PUSH2 0xCB JUMP JUMPDEST STOP JUMPDEST PUSH2 0xA5 PUSH1 0x4 DUP1 CALLDATASIZE SUB DUP2 ADD SWAP1 PUSH2 0xA0 SWAP2 SWAP1 PUSH2 0x67E JUMP JUMPDEST PUSH2 0x167 JUMP JUMPDEST STOP JUMPDEST PUSH2 0xAF PUSH2 0x16A JUMP JUMPDEST PUSH1 0x40 MLOAD PUSH2 0xBC SWAP2 SWAP1 PUSH2 0x877 JUMP JUMPDEST PUSH1 0x40 MLOAD DUP1 SWAP2 SUB SWAP1 RETURN JUMPDEST PUSH1 0x3 SLOAD DUP2 JUMP JUMPDEST PUSH32 0x0 PUSH20 0xFFFFFFFFFFFFFFFFFFFFFFFFFFFFFFFFFFFFFFFF AND CALLER PUSH20 0xFFFFFFFFFFFFFFFFFFFFFFFFFFFFFFFFFFFFFFFF AND EQ PUSH2 0x159 JUMPI PUSH1 0x40 MLOAD PUSH32 0x8C379A000000000000000000000000000000000000000000000000000000000 DUP2 MSTORE PUSH1 0x4 ADD PUSH2 0x150 SWAP1 PUSH2 0x920 JUMP JUMPDEST PUSH1 0x40 MLOAD DUP1 SWAP2 SUB SWAP1 REVERT JUMPDEST PUSH2 0x163 DUP3 DUP3 PUSH2 0x3A0 JUMP JUMPDEST POP POP JUMP JUMPDEST POP JUMP JUMPDEST PUSH1 0x0 PUSH2 0x198 PUSH32 0x9821A2BE37A663FB6603EEF5ED662336EC7C77EE8E0A2CE79FF3A6C5C17819BB PUSH1 0x0 SHL PUSH2 0x167 JUMP JUMPDEST PUSH2 0x1C4 PUSH32 0xA0CE509E8915E37266ADBA0E6705CA5384082645BB5EBCAD0793F27BE6B894E3 PUSH1 0x0 SHL PUSH2 0x167 JUMP JUMPDEST PUSH2 0x1F0 PUSH32 0xBDA5035A7849D2F95C87BC5032AD051208CB5116E02CD5B6BF7CD6BCEC47350F PUSH1 0x0 SHL PUSH2 0x167 JUMP JUMPDEST PUSH2 0x21C PUSH32 0xE250E1EF18B2931518B93E49A1EA4EBE01F0427574FECCB6CB3D4D212AC350B3 PUSH1 0x0 SHL PUSH2 0x167 JUMP JUMPDEST PUSH1 0x2 SLOAD PUSH32 0x0 PUSH20 0xFFFFFFFFFFFFFFFFFFFFFFFFFFFFFFFFFFFFFFFF AND PUSH4 0x70A08231 ADDRESS PUSH1 0x40 MLOAD DUP3 PUSH4 0xFFFFFFFF AND PUSH1 0xE0 SHL DUP2 MSTORE PUSH1 0x4 ADD PUSH2 0x278 SWAP2 SWAP1 PUSH2 0x81E JUMP JUMPDEST PUSH1 0x20 PUSH1 0x40 MLOAD DUP1 DUP4 SUB DUP2 DUP7 DUP1 EXTCODESIZE ISZERO DUP1 ISZERO PUSH2 0x290 JUMPI PUSH1 0x0 DUP1 REVERT JUMPDEST POP GAS STATICCALL ISZERO DUP1 ISZERO PUSH2 0x2A4 JUMPI RETURNDATASIZE PUSH1 0x0 DUP1 RETURNDATACOPY RETURNDATASIZE PUSH1 0x0 REVERT JUMPDEST POP POP POP POP PUSH1 0x40 MLOAD RETURNDATASIZE PUSH1 0x1F NOT PUSH1 0x1F DUP3 ADD AND DUP3 ADD DUP1 PUSH1 0x40 MSTORE POP DUP2 ADD SWAP1 PUSH2 0x2C8 SWAP2 SWAP1 PUSH2 0x6EB JUMP JUMPDEST LT ISZERO PUSH2 0x309 JUMPI PUSH1 0x40 MLOAD PUSH32 0x8C379A000000000000000000000000000000000000000000000000000000000 DUP2 MSTORE PUSH1 0x4 ADD PUSH2 0x300 SWAP1 PUSH2 0x900 JUMP JUMPDEST PUSH1 0x40 MLOAD DUP1 SWAP2 SUB SWAP1 REVERT JUMPDEST PUSH2 0x335 PUSH32 0x8A18F97432955BD2C0D4DA121E9E7E386F529E80DEB7EA2154E975F45A5A1C3F PUSH1 0x0 SHL PUSH2 0x167 JUMP JUMPDEST PUSH2 0x361 PUSH32 0x6EA50C9B8101AD73AEB7C99B5AFC673ADAE8A4A2E0BC863272A365FD0CC360E6 PUSH1 0x0 SHL PUSH2 0x167 JUMP JUMPDEST PUSH2 0x38D PUSH32 0x7EF12C6656EC8AFBC6B2A4BAF096D91F4344EBA576A43E08201011DC104587D3 PUSH1 0x0 SHL PUSH2 0x167 JUMP JUMPDEST PUSH2 0x39B PUSH1 0x1 SLOAD PUSH1 0x2 SLOAD PUSH2 0x42F JUMP JUMPDEST SWAP1 POP SWAP1 JUMP JUMPDEST PUSH2 0x3CC PUSH32 0xF8456E5B52083A40F08C3393BE7FDBDBE4C782651BD10A2D91846BD4F3D16952 PUSH1 0x0 SHL PUSH2 0x167 JUMP JUMPDEST PUSH2 0x3F8 PUSH32 0x6F56650C2F7C20DF3F92F08547DF97DB32DD3DDF088494A501CBE21DAD0F3071 PUSH1 0x0 SHL PUSH2 0x167 JUMP JUMPDEST PUSH2 0x424 PUSH32 0xD964B1744BE2BC8274A7F4D7490E74F2E67E44F42DE48876903E1DCA470F7B69 PUSH1 0x0 SHL PUSH2 0x167 JUMP JUMPDEST DUP1 PUSH1 0x3 DUP2 SWAP1 SSTORE POP POP POP JUMP JUMPDEST PUSH1 0x0 PUSH32 0x0 PUSH20 0xFFFFFFFFFFFFFFFFFFFFFFFFFFFFFFFFFFFFFFFF AND PUSH4 0x4000AEA0 PUSH32 0x0 DUP5 DUP7 PUSH1 0x0 PUSH1 0x40 MLOAD PUSH1 0x20 ADD PUSH2 0x4A3 SWAP3 SWAP2 SWAP1 PUSH2 0x892 JUMP JUMPDEST PUSH1 0x40 MLOAD PUSH1 0x20 DUP2 DUP4 SUB SUB DUP2 MSTORE SWAP1 PUSH1 0x40 MSTORE PUSH1 0x40 MLOAD DUP5 PUSH4 0xFFFFFFFF AND PUSH1 0xE0 SHL DUP2 MSTORE PUSH1 0x4 ADD PUSH2 0x4D0 SWAP4 SWAP3 SWAP2 SWAP1 PUSH2 0x839 JUMP JUMPDEST PUSH1 0x20 PUSH1 0x40 MLOAD DUP1 DUP4 SUB DUP2 PUSH1 0x0 DUP8 DUP1 EXTCODESIZE ISZERO DUP1 ISZERO PUSH2 0x4EA JUMPI PUSH1 0x0 DUP1 REVERT JUMPDEST POP GAS CALL ISZERO DUP1 ISZERO PUSH2 0x4FE JUMPI RETURNDATASIZE PUSH1 0x0 DUP1 RETURNDATACOPY RETURNDATASIZE PUSH1 0x0 REVERT JUMPDEST POP POP POP POP PUSH1 0x40 MLOAD RETURNDATASIZE PUSH1 0x1F NOT PUSH1 0x1F DUP3 ADD AND DUP3 ADD DUP1 PUSH1 0x40 MSTORE POP DUP2 ADD SWAP1 PUSH2 0x522 SWAP2 SWAP1 PUSH2 0x651 JUMP JUMPDEST POP PUSH1 0x0 PUSH2 0x544 DUP5 PUSH1 0x0 ADDRESS PUSH1 0x0 DUP1 DUP10 DUP2 MSTORE PUSH1 0x20 ADD SWAP1 DUP2 MSTORE PUSH1 0x20 ADD PUSH1 0x0 KECCAK256 SLOAD PUSH2 0x58E JUMP JUMPDEST SWAP1 POP PUSH1 0x1 PUSH1 0x0 DUP1 DUP7 DUP2 MSTORE PUSH1 0x20 ADD SWAP1 DUP2 MSTORE PUSH1 0x20 ADD PUSH1 0x0 KECCAK256 SLOAD PUSH2 0x565 SWAP2 SWAP1 PUSH2 0x988 JUMP JUMPDEST PUSH1 0x0 DUP1 DUP7 DUP2 MSTORE PUSH1 0x20 ADD SWAP1 DUP2 MSTORE PUSH1 0x20 ADD PUSH1 0x0 KECCAK256 DUP2 SWAP1 SSTORE POP PUSH2 0x585 DUP5 DUP3 PUSH2 0x5CA JUMP JUMPDEST SWAP2 POP POP SWAP3 SWAP2 POP POP JUMP JUMPDEST PUSH1 0x0 DUP5 DUP5 DUP5 DUP5 PUSH1 0x40 MLOAD PUSH1 0x20 ADD PUSH2 0x5A7 SWAP5 SWAP4 SWAP3 SWAP2 SWAP1 PUSH2 0x8BB JUMP JUMPDEST PUSH1 0x40 MLOAD PUSH1 0x20 DUP2 DUP4 SUB SUB DUP2 MSTORE SWAP1 PUSH1 0x40 MSTORE DUP1 MLOAD SWAP1 PUSH1 0x20 ADD KECCAK256 PUSH1 0x0 SHR SWAP1 POP SWAP5 SWAP4 POP POP POP POP JUMP JUMPDEST PUSH1 0x0 DUP3 DUP3 PUSH1 0x40 MLOAD PUSH1 0x20 ADD PUSH2 0x5DF SWAP3 SWAP2 SWAP1 PUSH2 0x7F2 JUMP JUMPDEST PUSH1 0x40 MLOAD PUSH1 0x20 DUP2 DUP4 SUB SUB DUP2 MSTORE SWAP1 PUSH1 0x40 MSTORE DUP1 MLOAD SWAP1 PUSH1 0x20 ADD KECCAK256 SWAP1 POP SWAP3 SWAP2 POP POP JUMP JUMPDEST PUSH1 0x0 DUP2 MLOAD SWAP1 POP PUSH2 0x60C DUP2 PUSH2 0xB34 JUMP JUMPDEST SWAP3 SWAP2 POP POP JUMP JUMPDEST PUSH1 0x0 DUP2 CALLDATALOAD SWAP1 POP PUSH2 0x621 DUP2 PUSH2 0xB4B JUMP JUMPDEST SWAP3 SWAP2 POP POP JUMP JUMPDEST PUSH1 0x0 DUP2 CALLDATALOAD SWAP1 POP PUSH2 0x636 DUP2 PUSH2 0xB62 JUMP JUMPDEST SWAP3 SWAP2 POP POP JUMP JUMPDEST PUSH1 0x0 DUP2 MLOAD SWAP1 POP PUSH2 0x64B DUP2 PUSH2 0xB62 JUMP JUMPDEST SWAP3 SWAP2 POP POP JUMP JUMPDEST PUSH1 0x0 PUSH1 0x20 DUP3 DUP5 SUB SLT ISZERO PUSH2 0x667 JUMPI PUSH2 0x666 PUSH2 0xAA6 JUMP JUMPDEST JUMPDEST PUSH1 0x0 PUSH2 0x675 DUP5 DUP3 DUP6 ADD PUSH2 0x5FD JUMP JUMPDEST SWAP2 POP POP SWAP3 SWAP2 POP POP JUMP JUMPDEST PUSH1 0x0 PUSH1 0x20 DUP3 DUP5 SUB SLT ISZERO PUSH2 0x694 JUMPI PUSH2 0x693 PUSH2 0xAA6 JUMP JUMPDEST JUMPDEST PUSH1 0x0 PUSH2 0x6A2 DUP5 DUP3 DUP6 ADD PUSH2 0x612 JUMP JUMPDEST SWAP2 POP POP SWAP3 SWAP2 POP POP JUMP JUMPDEST PUSH1 0x0 DUP1 PUSH1 0x40 DUP4 DUP6 SUB SLT ISZERO PUSH2 0x6C2 JUMPI PUSH2 0x6C1 PUSH2 0xAA6 JUMP JUMPDEST JUMPDEST PUSH1 0x0 PUSH2 0x6D0 DUP6 DUP3 DUP7 ADD PUSH2 0x612 JUMP JUMPDEST SWAP3 POP POP PUSH1 0x20 PUSH2 0x6E1 DUP6 DUP3 DUP7 ADD PUSH2 0x627 JUMP JUMPDEST SWAP2 POP POP SWAP3 POP SWAP3 SWAP1 POP JUMP JUMPDEST PUSH1 0x0 PUSH1 0x20 DUP3 DUP5 SUB SLT ISZERO PUSH2 0x701 JUMPI PUSH2 0x700 PUSH2 0xAA6 JUMP JUMPDEST JUMPDEST PUSH1 0x0 PUSH2 0x70F DUP5 DUP3 DUP6 ADD PUSH2 0x63C JUMP JUMPDEST SWAP2 POP POP SWAP3 SWAP2 POP POP JUMP JUMPDEST PUSH2 0x721 DUP2 PUSH2 0x9DE JUMP JUMPDEST DUP3 MSTORE POP POP JUMP JUMPDEST PUSH2 0x730 DUP2 PUSH2 0x9FC JUMP JUMPDEST DUP3 MSTORE POP POP JUMP JUMPDEST PUSH2 0x747 PUSH2 0x742 DUP3 PUSH2 0x9FC JUMP JUMPDEST PUSH2 0xA63 JUMP JUMPDEST DUP3 MSTORE POP POP JUMP JUMPDEST PUSH1 0x0 PUSH2 0x758 DUP3 PUSH2 0x95B JUMP JUMPDEST PUSH2 0x762 DUP2 DUP6 PUSH2 0x966 JUMP JUMPDEST SWAP4 POP PUSH2 0x772 DUP2 DUP6 PUSH1 0x20 DUP7 ADD PUSH2 0xA30 JUMP JUMPDEST PUSH2 0x77B DUP2 PUSH2 0xAAB JUMP JUMPDEST DUP5 ADD SWAP2 POP POP SWAP3 SWAP2 POP POP JUMP JUMPDEST PUSH1 0x0 PUSH2 0x793 PUSH1 0x2B DUP4 PUSH2 0x977 JUMP JUMPDEST SWAP2 POP PUSH2 0x79E DUP3 PUSH2 0xABC JUMP JUMPDEST PUSH1 0x40 DUP3 ADD SWAP1 POP SWAP2 SWAP1 POP JUMP JUMPDEST PUSH1 0x0 PUSH2 0x7B6 PUSH1 0x1F DUP4 PUSH2 0x977 JUMP JUMPDEST SWAP2 POP PUSH2 0x7C1 DUP3 PUSH2 0xB0B JUMP JUMPDEST PUSH1 0x20 DUP3 ADD SWAP1 POP SWAP2 SWAP1 POP JUMP JUMPDEST PUSH2 0x7D5 DUP2 PUSH2 0xA26 JUMP JUMPDEST DUP3 MSTORE POP POP JUMP JUMPDEST PUSH2 0x7EC PUSH2 0x7E7 DUP3 PUSH2 0xA26 JUMP JUMPDEST PUSH2 0xA6D JUMP JUMPDEST DUP3 MSTORE POP POP JUMP JUMPDEST PUSH1 0x0 PUSH2 0x7FE DUP3 DUP6 PUSH2 0x736 JUMP JUMPDEST PUSH1 0x20 DUP3 ADD SWAP2 POP PUSH2 0x80E DUP3 DUP5 PUSH2 0x7DB JUMP JUMPDEST PUSH1 0x20 DUP3 ADD SWAP2 POP DUP2 SWAP1 POP SWAP4 SWAP3 POP POP POP JUMP JUMPDEST PUSH1 0x0 PUSH1 0x20 DUP3 ADD SWAP1 POP PUSH2 0x833 PUSH1 0x0 DUP4 ADD DUP5 PUSH2 0x718 JUMP JUMPDEST SWAP3 SWAP2 POP POP JUMP JUMPDEST PUSH1 0x0 PUSH1 0x60 DUP3 ADD SWAP1 POP PUSH2 0x84E PUSH1 0x0 DUP4 ADD DUP7 PUSH2 0x718 JUMP JUMPDEST PUSH2 0x85B PUSH1 0x20 DUP4 ADD DUP6 PUSH2 0x7CC JUMP JUMPDEST DUP2 DUP2 SUB PUSH1 0x40 DUP4 ADD MSTORE PUSH2 0x86D DUP2 DUP5 PUSH2 0x74D JUMP JUMPDEST SWAP1 POP SWAP5 SWAP4 POP POP POP POP JUMP JUMPDEST PUSH1 0x0 PUSH1 0x20 DUP3 ADD SWAP1 POP PUSH2 0x88C PUSH1 0x0 DUP4 ADD DUP5 PUSH2 0x727 JUMP JUMPDEST SWAP3 SWAP2 POP POP JUMP JUMPDEST PUSH1 0x0 PUSH1 0x40 DUP3 ADD SWAP1 POP PUSH2 0x8A7 PUSH1 0x0 DUP4 ADD DUP6 PUSH2 0x727 JUMP JUMPDEST PUSH2 0x8B4 PUSH1 0x20 DUP4 ADD DUP5 PUSH2 0x7CC JUMP JUMPDEST SWAP4 SWAP3 POP POP POP JUMP JUMPDEST PUSH1 0x0 PUSH1 0x80 DUP3 ADD SWAP1 POP PUSH2 0x8D0 PUSH1 0x0 DUP4 ADD DUP8 PUSH2 0x727 JUMP JUMPDEST PUSH2 0x8DD PUSH1 0x20 DUP4 ADD DUP7 PUSH2 0x7CC JUMP JUMPDEST PUSH2 0x8EA PUSH1 0x40 DUP4 ADD DUP6 PUSH2 0x718 JUMP JUMPDEST PUSH2 0x8F7 PUSH1 0x60 DUP4 ADD DUP5 PUSH2 0x7CC JUMP JUMPDEST SWAP6 SWAP5 POP POP POP POP POP JUMP JUMPDEST PUSH1 0x0 PUSH1 0x20 DUP3 ADD SWAP1 POP DUP2 DUP2 SUB PUSH1 0x0 DUP4 ADD MSTORE PUSH2 0x919 DUP2 PUSH2 0x786 JUMP JUMPDEST SWAP1 POP SWAP2 SWAP1 POP JUMP JUMPDEST PUSH1 0x0 PUSH1 0x20 DUP3 ADD SWAP1 POP DUP2 DUP2 SUB PUSH1 0x0 DUP4 ADD MSTORE PUSH2 0x939 DUP2 PUSH2 0x7A9 JUMP JUMPDEST SWAP1 POP SWAP2 SWAP1 POP JUMP JUMPDEST PUSH1 0x0 PUSH1 0x20 DUP3 ADD SWAP1 POP PUSH2 0x955 PUSH1 0x0 DUP4 ADD DUP5 PUSH2 0x7CC JUMP JUMPDEST SWAP3 SWAP2 POP POP JUMP JUMPDEST PUSH1 0x0 DUP2 MLOAD SWAP1 POP SWAP2 SWAP1 POP JUMP JUMPDEST PUSH1 0x0 DUP3 DUP3 MSTORE PUSH1 0x20 DUP3 ADD SWAP1 POP SWAP3 SWAP2 POP POP JUMP JUMPDEST PUSH1 0x0 DUP3 DUP3 MSTORE PUSH1 0x20 DUP3 ADD SWAP1 POP SWAP3 SWAP2 POP POP JUMP JUMPDEST PUSH1 0x0 PUSH2 0x993 DUP3 PUSH2 0xA26 JUMP JUMPDEST SWAP2 POP PUSH2 0x99E DUP4 PUSH2 0xA26 JUMP JUMPDEST SWAP3 POP DUP3 PUSH32 0xFFFFFFFFFFFFFFFFFFFFFFFFFFFFFFFFFFFFFFFFFFFFFFFFFFFFFFFFFFFFFFFF SUB DUP3 GT ISZERO PUSH2 0x9D3 JUMPI PUSH2 0x9D2 PUSH2 0xA77 JUMP JUMPDEST JUMPDEST DUP3 DUP3 ADD SWAP1 POP SWAP3 SWAP2 POP POP JUMP JUMPDEST PUSH1 0x0 PUSH2 0x9E9 DUP3 PUSH2 0xA06 JUMP JUMPDEST SWAP1 POP SWAP2 SWAP1 POP JUMP JUMPDEST PUSH1 0x0 DUP2 ISZERO ISZERO SWAP1 POP SWAP2 SWAP1 POP JUMP JUMPDEST PUSH1 0x0 DUP2 SWAP1 POP SWAP2 SWAP1 POP JUMP JUMPDEST PUSH1 0x0 PUSH20 0xFFFFFFFFFFFFFFFFFFFFFFFFFFFFFFFFFFFFFFFF DUP3 AND SWAP1 POP SWAP2 SWAP1 POP JUMP JUMPDEST PUSH1 0x0 DUP2 SWAP1 POP SWAP2 SWAP1 POP JUMP JUMPDEST PUSH1 0x0 JUMPDEST DUP4 DUP2 LT ISZERO PUSH2 0xA4E JUMPI DUP1 DUP3 ADD MLOAD DUP2 DUP5 ADD MSTORE PUSH1 0x20 DUP2 ADD SWAP1 POP PUSH2 0xA33 JUMP JUMPDEST DUP4 DUP2 GT ISZERO PUSH2 0xA5D JUMPI PUSH1 0x0 DUP5 DUP5 ADD MSTORE JUMPDEST POP POP POP POP JUMP JUMPDEST PUSH1 0x0 DUP2 SWAP1 POP SWAP2 SWAP1 POP JUMP JUMPDEST PUSH1 0x0 DUP2 SWAP1 POP SWAP2 SWAP1 POP JUMP JUMPDEST PUSH32 0x4E487B7100000000000000000000000000000000000000000000000000000000 PUSH1 0x0 MSTORE PUSH1 0x11 PUSH1 0x4 MSTORE PUSH1 0x24 PUSH1 0x0 REVERT JUMPDEST PUSH1 0x0 DUP1 REVERT JUMPDEST PUSH1 0x0 PUSH1 0x1F NOT PUSH1 0x1F DUP4 ADD AND SWAP1 POP SWAP2 SWAP1 POP JUMP JUMPDEST PUSH32 0x4E6F7420656E6F756768204C494E4B202D2066696C6C20636F6E747261637420 PUSH1 0x0 DUP3 ADD MSTORE PUSH32 0x7769746820666175636574000000000000000000000000000000000000000000 PUSH1 0x20 DUP3 ADD MSTORE POP JUMP JUMPDEST PUSH32 0x4F6E6C7920565246436F6F7264696E61746F722063616E2066756C66696C6C00 PUSH1 0x0 DUP3 ADD MSTORE POP JUMP JUMPDEST PUSH2 0xB3D DUP2 PUSH2 0x9F0 JUMP JUMPDEST DUP2 EQ PUSH2 0xB48 JUMPI PUSH1 0x0 DUP1 REVERT JUMPDEST POP JUMP JUMPDEST PUSH2 0xB54 DUP2 PUSH2 0x9FC JUMP JUMPDEST DUP2 EQ PUSH2 0xB5F JUMPI PUSH1 0x0 DUP1 REVERT JUMPDEST POP JUMP JUMPDEST PUSH2 0xB6B DUP2 PUSH2 0xA26 JUMP JUMPDEST DUP2 EQ PUSH2 0xB76 JUMPI PUSH1 0x0 DUP1 REVERT JUMPDEST POP JUMP INVALID LOG2 PUSH5 0x6970667358 0x22 SLT KECCAK256 LOG3 DUP11 0xF7 REVERT LOG0 GT CALLDATASIZE EXTCODEHASH LT SHL 0xA6 0xFB 0xD7 RETURNDATACOPY MLOAD SWAP14 SELFDESTRUCT PUSH21 0xB730EB81BB2FB6253B75E46A2B0C64736F6C634300 ADDMOD SMOD STOP CALLER "
        },
        "methodIdentifiers": {
          "c_0x468ad65f(bytes32)": "9cb3f421",
          "getRandomNumber()": "dbdff2c1",
          "randomResult()": "42619f66",
          "rawFulfillRandomness(bytes32,uint256)": "94985ddd"
        }
      }
    }
  }
}