{
  "_format": "hh-sol-artifact-1",
  "contractName": "MyFirstContract",
  "sourceName": "contracts/MyFirstContract.sol",
  "abi": [
    {
      "inputs": [
        {
          "internalType": "address",
          "name": "_priceFeed",
          "type": "address"
        }
      ],
      "stateMutability": "nonpayable",
      "type": "constructor"
    },
    {
      "inputs": [],
      "name": "getLatestPrice",
      "outputs": [
        {
          "internalType": "int256",
          "name": "",
          "type": "int256"
        }
      ],
      "stateMutability": "view",
      "type": "function"
    },
    {
      "inputs": [],
      "name": "getNumber",
      "outputs": [
        {
          "internalType": "uint256",
          "name": "",
          "type": "uint256"
        }
      ],
      "stateMutability": "view",
      "type": "function"
    },
    {
      "inputs": [
        {
          "internalType": "uint256",
          "name": "_num",
          "type": "uint256"
        }
      ],
      "name": "setNumber",
      "outputs": [],
      "stateMutability": "nonpayable",
      "type": "function"
    }
  ],
  "bytecode": "0x608060405234801561001057600080fd5b5060405161047238038061047283398181016040528101906100329190610095565b80600160006101000a81548173ffffffffffffffffffffffffffffffffffffffff021916908373ffffffffffffffffffffffffffffffffffffffff1602179055506000808190555050610107565b60008151905061008f816100f0565b92915050565b6000602082840312156100a757600080fd5b60006100b584828501610080565b91505092915050565b60006100c9826100d0565b9050919050565b600073ffffffffffffffffffffffffffffffffffffffff82169050919050565b6100f9816100be565b811461010457600080fd5b50565b61035c806101166000396000f3fe608060405234801561001057600080fd5b50600436106100415760003560e01c80633fb5c1cb146100465780638e15f47314610062578063f2c9ecd814610080575b600080fd5b610060600480360381019061005b91906101c3565b61009e565b005b61006a6100a8565b6040516100779190610281565b60405180910390f35b610088610166565b604051610095919061029c565b60405180910390f35b8060008190555050565b600080600080600080600160009054906101000a900473ffffffffffffffffffffffffffffffffffffffff1673ffffffffffffffffffffffffffffffffffffffff1663feaf968c6040518163ffffffff1660e01b815260040160a06040518083038186803b15801561011957600080fd5b505afa15801561012d573d6000803e3d6000fd5b505050506040513d601f19601f8201168201806040525081019061015191906101ec565b94509450945094509450839550505050505090565b60008054905090565b60008151905061017e816102e1565b92915050565b600081359050610193816102f8565b92915050565b6000815190506101a8816102f8565b92915050565b6000815190506101bd8161030f565b92915050565b6000602082840312156101d557600080fd5b60006101e384828501610184565b91505092915050565b600080600080600060a0868803121561020457600080fd5b6000610212888289016101ae565b95505060206102238882890161016f565b945050604061023488828901610199565b935050606061024588828901610199565b9250506080610256888289016101ae565b9150509295509295909350565b61026c816102b7565b82525050565b61027b816102c1565b82525050565b60006020820190506102966000830184610263565b92915050565b60006020820190506102b16000830184610272565b92915050565b6000819050919050565b6000819050919050565b600069ffffffffffffffffffff82169050919050565b6102ea816102b7565b81146102f557600080fd5b50565b610301816102c1565b811461030c57600080fd5b50565b610318816102cb565b811461032357600080fd5b5056fea26469706673582212205b7895c5fbf83e17c87e88ebb3d680862f4766d04fbc8023e9693f38c416472c64736f6c63430008000033",
  "linkReferences": {},
  "deployedLinkReferences": {}
}