{
  "_format": "hh-sol-artifact-1",
  "contractName": "MyFirstContract",
  "sourceName": "contracts/MyFirstContract.sol",
  "abi": [
    {
      "inputs": [
        {
          "internalType": "address",
          "name": "_priceFeed",
          "type": "address"
        }
      ],
      "stateMutability": "nonpayable",
      "type": "constructor"
    },
    {
      "inputs": [
        {
          "internalType": "bytes32",
          "name": "c__0x85068c8f",
          "type": "bytes32"
        }
      ],
      "name": "c_0x85068c8f",
      "outputs": [],
      "stateMutability": "pure",
      "type": "function"
    },
    {
      "inputs": [],
      "name": "getLatestPrice",
      "outputs": [
        {
          "internalType": "int256",
          "name": "",
          "type": "int256"
        }
      ],
      "stateMutability": "view",
      "type": "function"
    },
    {
      "inputs": [],
      "name": "getNumber",
      "outputs": [
        {
          "internalType": "uint256",
          "name": "",
          "type": "uint256"
        }
      ],
      "stateMutability": "view",
      "type": "function"
    },
    {
      "inputs": [
        {
          "internalType": "uint256",
          "name": "_num",
          "type": "uint256"
        }
      ],
      "name": "setNumber",
      "outputs": [],
      "stateMutability": "nonpayable",
      "type": "function"
    }
  ],
  "bytecode": "0x608060405234801561001057600080fd5b506040516107de3803806107de83398181016040528101906100329190610192565b6100647f06c650c6089ca45b3dde010f1e49e0a1d69f4fb65b15c2c8317db62afb4a54e660001b61017a60201b60201c565b6100967f9c7a3a41e45180c5dd599879e3b0027367340254bfc0dcebea61f2a8a7cf8f6f60001b61017a60201b60201c565b6100c87f089d1d6a4a204c3172475f48519045a5284df0c549be186d19de17eb9088959d60001b61017a60201b60201c565b80600160006101000a81548173ffffffffffffffffffffffffffffffffffffffff021916908373ffffffffffffffffffffffffffffffffffffffff16021790555061013b7f0643895679c14bda27eda3806febbd4e5dae651ce66ab48e3bd18fc8fad6aaf360001b61017a60201b60201c565b61016d7f3d7e04bb3f506bb0d9e0923093f4f6213f8bb8ee3cfddb682d1b20ee70d5547660001b61017a60201b60201c565b6000808190555050610204565b50565b60008151905061018c816101ed565b92915050565b6000602082840312156101a457600080fd5b60006101b28482850161017d565b91505092915050565b60006101c6826101cd565b9050919050565b600073ffffffffffffffffffffffffffffffffffffffff82169050919050565b6101f6816101bb565b811461020157600080fd5b50565b6105cb806102136000396000f3fe608060405234801561001057600080fd5b506004361061004c5760003560e01c80632fff4b58146100515780633fb5c1cb1461006d5780638e15f47314610089578063f2c9ecd8146100a7575b600080fd5b61006b600480360381019061006691906103e8565b6100c5565b005b61008760048036038101906100829190610411565b6100c8565b005b610091610156565b60405161009e91906104cf565b60405180910390f35b6100af6102f1565b6040516100bc91906104ea565b60405180910390f35b50565b6100f47f8fa5f1bcbb5fc6f520d744e4dea3dd2d5024024d773ca6322ce0b0297fd3f25e60001b6100c5565b6101207fdb22dbc6105d03fab51add9a31060774ffc2ca00eecfa7abd36f35593b92c9a460001b6100c5565b61014c7f173ed2e484a12ff8041b3f10f9ff4ed201d97eb7891a82f812753d675ab55c7f60001b6100c5565b8060008190555050565b60006101847fe69dae7e095d5e7f5957c3ab0ead6944ceb961044b62bcfdd31b0badc33a42be60001b6100c5565b6101b07f5c592503194061880ab0ea46c420078819397def23f57c13000c2578b9fca91560001b6100c5565b6101dc7fb200f84859422488c6b0de491d7445dbb731855c1f593d9070afef5ce9d76b2a60001b6100c5565b6000806000806000600160009054906101000a900473ffffffffffffffffffffffffffffffffffffffff1673ffffffffffffffffffffffffffffffffffffffff1663feaf968c6040518163ffffffff1660e01b815260040160a06040518083038186803b15801561024c57600080fd5b505afa158015610260573d6000803e3d6000fd5b505050506040513d601f19601f82011682018060405250810190610284919061043a565b945094509450945094506102ba7f9e20a60e8080f6c7fcd6749239691b3e19e62ca7687927223efb7b1a00a4c94960001b6100c5565b6102e67f40523171a94a736aedfb373cae82c6e9cea454ead069237a4b509c84c7e760af60001b6100c5565b839550505050505090565b600061031f7f36fcab87967697cf0011607ee8478af36cb2c45f22dce7f9a928e7f541b6051260001b6100c5565b61034b7f715a5afc04ae69f0940a240b384ac06cf94675fdb2cc2ef77341555f8f1cde3e60001b6100c5565b6103777f9260fba3101f36afb055b0dbd152249d5f8f95e969cd4a7d6ece88d3aba19e1760001b6100c5565b600054905090565b60008135905061038e81610539565b92915050565b6000815190506103a381610550565b92915050565b6000813590506103b881610567565b92915050565b6000815190506103cd81610567565b92915050565b6000815190506103e28161057e565b92915050565b6000602082840312156103fa57600080fd5b60006104088482850161037f565b91505092915050565b60006020828403121561042357600080fd5b6000610431848285016103a9565b91505092915050565b600080600080600060a0868803121561045257600080fd5b6000610460888289016103d3565b955050602061047188828901610394565b9450506040610482888289016103be565b9350506060610493888289016103be565b92505060806104a4888289016103d3565b9150509295509295909350565b6104ba8161050f565b82525050565b6104c981610519565b82525050565b60006020820190506104e460008301846104b1565b92915050565b60006020820190506104ff60008301846104c0565b92915050565b6000819050919050565b6000819050919050565b6000819050919050565b600069ffffffffffffffffffff82169050919050565b61054281610505565b811461054d57600080fd5b50565b6105598161050f565b811461056457600080fd5b50565b61057081610519565b811461057b57600080fd5b50565b61058781610523565b811461059257600080fd5b5056fea264697066735822122043f2b2e3db858dd3d0dff6e213318e2d0a160efbe68c7c1ca28e2815ce2353dc64736f6c63430008000033",
  "linkReferences": {},
  "deployedLinkReferences": {}
}